:10000000C0E50220514E0000D10D0200254E000037
:10001000254E0000254E0000254E00000000000087
:10002000000000000000000000000000214B000064
:10003000254E000000000000CD4A0000254E0000C3
:10004000D14B0000D14B0000D14B0000D14B000040
:10005000D14B0000D14B0000D14B0000D14B000030
:10006000D14B0000D14B0000D14B0000D14B000020
:10007000D14B0000D14B0000D14B0000D14B000010
:10008000D14B0000D14B0000D14B0000D14B000000
:10009000D14B0000D14B0000D14B0000D14B0000F0
:1000A000D14B0000D14B0000D14B0000D14B0000E0
:1000B000D14B0000D14B0000D14B0000D14B0000D0
:1000C000D14B0000D14B0000D14B0000D14B0000C0
:1000D000D14B0000D14B0000D14B0000D14B0000B0
:1000E000D14B0000D14B0000D14B0000D14B0000A0
:1000F000D14B0000D14B0000D14B0000D14B000090
:1001000001F0FF01102A2BDB10F0070F08D010F8C8
:10011000013B013A8B422DD010F0070F42B3F6D1CC
:10012000F0B441EA012141EA014122F007047FF0E5
:1001300000070023F0E80256083C85EA010586EA3C
:10014000010685FA47F5A3FA87F586FA47F6A5FA78
:1001500087F68EB9EED1F0BC01F0FF0102F0070284
:1001600032B110F8013B013A83EA010313B1F8D12F
:100170000020704701387047002D06BF3546033810
:10018000073815F0010F07D1013015F4807F02BF49
:10019000013015F4C03F0130F0BC0138704700BF9A
:1001A00081F0004102E000BF83F0004330B54FEA28
:1001B00041044FEA430594EA050F08BF90EA020F95
:1001C0001FBF54EA000C55EA020C7FEA645C7FEA28
:1001D000655C00F0E2804FEA5454D4EB5555B8BF4B
:1001E0006D420CDD2C4480EA020281EA030382EABC
:1001F000000083EA010180EA020281EA0303362D4E
:1002000088BF30BD11F0004F4FEA01314FF4801C20
:100210004CEA113102D0404261EB410113F0004F32
:100220004FEA03334CEA133302D0524263EB4303E9
:1002300094EA050F00F0A780A4F10104D5F1200E87
:100240000DDB02FA0EFC22FA05F2801841F10001E2
:1002500003FA0EF2801843FA05F359410EE0A5F1B6
:1002600020050EF1200E012A03FA0EFC28BF4CF0E7
:10027000020C43FA05F3C01851EBE37101F000459D
:1002800007D54FF0000EDCF1000C7EEB00006EEBAA
:100290000101B1F5801F1BD3B1F5001F0CD3490834
:1002A0005FEA30004FEA3C0C04F101044FEA44528B
:1002B00012F5800F80F09A80BCF1004F08BF5FEA12
:1002C000500C50F1000041EB045141EA050130BDF2
:1002D0005FEA4C0C404141EB0101013C28BFB1F504
:1002E000801FE9D291F0000F04BF01460020B1FA4F
:1002F00081F308BF2033A3F10B03B3F120020CDA22
:100300000C3208DD02F1140CC2F10C0201FA0CF0FF
:1003100021FA02F10CE002F11402D8BFC2F1200C64
:1003200001FA02F120FA0CFCDCBF41EA0C0190401A
:10033000E41AA2BF01EB0451294330BD6FEA040463
:100340001F3C1CDA0C340EDC04F11404C4F120024E
:1003500020FA04F001FA02F340EA030021FA04F360
:1003600045EA030130BDC4F10C04C4F1200220FAB7
:1003700002F001FA04F340EA0300294630BD21FAF5
:1003800004F0294630BD94F0000F83F4801306BFBB
:1003900081F480110134013D4EE77FEA645C18BFAF
:1003A0007FEA655C29D094EA050F08BF90EA020F46
:1003B00005D054EA000C04BF1946104630BD91EA3E
:1003C000030F1EBF0021002030BD5FEA545C05D141
:1003D0004000494128BF41F0004130BD14F5800480
:1003E0003CBF01F5801130BD01F0004545F0FE41F4
:1003F00041F470014FF0000030BD7FEA645C1ABF29
:10040000194610467FEA655C1CBF0B46024650EA5F
:10041000013406BF52EA033591EA030F41F400218B
:1004200030BD00BF90F0000F04BF0021704730B511
:100430004FF4806404F132044FF000054FF00001E6
:1004400050E700BF90F0000F04BF0021704730B5A7
:100450004FF4806404F1320410F0004548BF40427C
:100460004FF000013EE700BF42004FEAE2014FEAD1
:1004700031014FEA02701FBF12F07F4393F07F4FAC
:1004800081F06051704732F07F4208BF704793F0AF
:100490007F4F04BF41F40021704730B54FF46074C2
:1004A00001F0004521F000411CE700BF50EA0102C5
:1004B00008BF704730B54FF000050AE050EA01026E
:1004C00008BF704730B511F0004502D5404261EBDE
:1004D00041014FF4806404F132045FEA915C3FF41F
:1004E000D8AE4FF003025FEADC0C18BF03325FEABC
:1004F000DC0C18BF033202EBDC02C2F1200300FA6D
:1005000003FC20FA02F001FA03FE40EA0E0021FA91
:1005100002F11444BDE600BF70B54FF0FF0C4CF47F
:10052000E06C1CEA11541DBF1CEA135594EA0C0F31
:1005300095EA0C0F00F0DEF82C4481EA030621EA6C
:100540004C5123EA4C5350EA013518BF52EA0335A7
:1005500041F4801143F4801338D0A0FB02CE4FF059
:100560000005E1FB02E506F00042E0FB03E54FF089
:100570000006E1FB03569CF0000F18BF4EF0010E81
:10058000A4F1FF04B6F5007F64F5407404D25FEA7D
:100590004E0E6D4146EB060642EAC62141EA555130
:1005A0004FEAC52040EA5E504FEACE2EB4F1FD0C72
:1005B00088BFBCF5E06F1ED8BEF1004F08BF5FEAF0
:1005C000500E50F1000041EB045170BD06F00046A2
:1005D00046EA010140EA020081EA0301B4EB5C044F
:1005E000C2BFD4EB0C0541EA045170BD41F4801147
:1005F0004FF0000E013C00F3AB8014F1360FDEBF6C
:10060000002001F0004170BDC4F10004203C35DA47
:100610000C341BDC04F11404C4F1200500FA05F3CA
:1006200020FA04F001FA05F240EA020001F000426B
:1006300021F0004110EBD37021FA04F642EB0601E1
:100640005EEA430E08BF20EAD37070BDC4F10C040B
:10065000C4F1200500FA04F320FA05F001FA04F2CF
:1006600040EA020001F0004110EBD37041F10001BB
:100670005EEA430E08BF20EAD37070BDC4F12005C6
:1006800000FA05F24EEA020E20FA04F301FA05F22E
:1006900043EA020321FA04F001F0004121FA04F2D6
:1006A00020EA020000EBD3705EEA430E08BF20EAA6
:1006B000D37070BD94F0000F0FD101F000464000E0
:1006C00041EB010111F4801F08BF013CF7D041EA62
:1006D000060195F0000F18BF704703F00046520066
:1006E00043EB030313F4801F08BF013DF7D043EA37
:1006F0000603704794EA0C0F0CEA135518BF95EAED
:100700000C0F0CD050EA410618BF52EA4306D1D173
:1007100081EA030101F000414FF0000070BD50EA92
:10072000410606BF1046194652EA430619D094EA1C
:100730000C0F02D150EA013613D195EA0C0F05D106
:1007400052EA03361CBF104619460AD181EA03015A
:1007500001F0004141F0FE4141F470014FF0000012
:1007600070BD41F0FE4141F4780170BD70B54FF0AD
:10077000FF0C4CF4E06C1CEA11541DBF1CEA13552D
:1007800094EA0C0F95EA0C0F00F0A7F8A4EB05040F
:1007900081EA030E52EA03354FEA013100F0888006
:1007A0004FEA03334FF0805545EA131343EA1263CF
:1007B0004FEA022245EA111545EA10654FEA002684
:1007C0000EF000419D4208BF964244F1FD0404F53D
:1007D000407402D25B084FEA3202B61A65EB030599
:1007E0005B084FEA32024FF480104FF4002CB6EB56
:1007F000020E75EB030E22BFB61A754640EA0C00D6
:100800005B084FEA3202B6EB020E75EB030E22BF15
:10081000B61A754640EA5C005B084FEA3202B6EB56
:10082000020E75EB030E22BFB61A754640EA9C0015
:100830005B084FEA3202B6EB020E75EB030E22BFE5
:10084000B61A754640EADC0055EA060E18D04FEAA3
:10085000051545EA16754FEA06164FEAC30343EA43
:1008600052734FEAC2025FEA1C1CC0D111F4801F10
:100870000BD141EA00014FF000004FF0004CB6E709
:1008800011F4801F04BF01430020B4F1FD0C88BFA8
:10089000BCF5E06F3FF6AFAEB5EB030C04BFB6EBB3
:1008A000020C5FEA500C50F1000041EB045170BDA6
:1008B0000EF0004E4EEA113114EB5C04C2BFD4EBD3
:1008C0000C0541EA045170BD41F480114FF0000E57
:1008D000013C90E645EA060E8DE60CEA135594EAD3
:1008E0000C0F08BF95EA0C0F3FF43BAF94EA0C0FD6
:1008F0000AD150EA01347FF434AF95EA0C0F7FF44B
:1009000025AF104619462CE795EA0C0F06D152EA9E
:1009100003353FF4FDAE1046194622E750EA410682
:1009200018BF52EA43067FF4C5AE50EA41047FF493
:100930000DAF52EA43057FF4EBAE12E74FF0FF3CF8
:1009400006E000BF4FF0010C02E000BF4FF0010CC9
:100950004DF804CD4FEA410C7FEA6C5C4FEA430C42
:1009600018BF7FEA6C5C1BD001B050EA410C0CBF91
:1009700052EA430C91EA030F02BF90EA020F0020F3
:10098000704710F1000F91EA030F58BF994208BF5A
:1009900090422CBFD8176FEAE37040F00100704717
:1009A0004FEA410C7FEA6C5C02D150EA013C07D16E
:1009B0004FEA430C7FEA6C5CD6D152EA033CD3D0B9
:1009C0005DF8040B704700BF8446104662468C46B3
:1009D0001946634600E000BF01B5FFF7B7FF0028E6
:1009E00048BF10F1000F01BD4DF808EDFFF7F4FF0F
:1009F0000CBF012000205DF808FB00BF4DF808ED9A
:100A0000FFF7EAFF34BF012000205DF808FB00BFBC
:100A10004DF808EDFFF7E0FF94BF012000205DF8DE
:100A200008FB00BF4DF808EDFFF7CEFF94BF012093
:100A300000205DF808FB00BF4DF808EDFFF7C4FF8C
:100A400034BF012000205DF808FB00BF4FEA4102DF
:100A500012F5001215D211D56FF47873B3EB625210
:100A600012D94FEAC12343F0004343EA505311F037
:100A7000004F23FA02F018BF404270474FF00000C9
:100A8000704750EA013005D111F0004008BF6FF007
:100A9000004070474FF00000704700BF4FEA41022E
:100AA000B2F1E04324BFB3F5001CDCF1FE5C0DD9CC
:100AB00001F0004C4FEAC0024CEA5070B2F1004F16
:100AC00040EB830008BF20F00100704711F0804F19
:100AD00021D113F13872BCBF01F00040704741F4DE
:100AE00080114FEA5252C2F11802C2F1200C10FAE2
:100AF0000CF320FA02F018BF40F001004FEAC123C6
:100B00004FEAD32303FA0CFC40EA0C0023FA02F369
:100B10004FEA4303CCE77FEA625307D150EA01333F
:100B20001EBF4FF0FE4040F44000704701F000400F
:100B300040F0FE4040F40000704700BF80F00040ED
:100B400002E000BF81F0004142001FBF5FEA4103A5
:100B500092EA030F7FEA226C7FEA236C6AD04FEAA5
:100B60001262D2EB1363C1BFD218414048404140EA
:100B7000B8BF5B42192B88BF704710F0004F40F49C
:100B8000000020F07F4018BF404211F0004F41F4B8
:100B9000000121F07F4118BF494292EA030F3FD084
:100BA000A2F1010241FA03FC10EB0C00C3F1200397
:100BB00001FA03F100F0004302D5494260EB400026
:100BC000B0F5000F13D3B0F1807F06D340084FEA91
:100BD000310102F10102FE2A51D2B1F1004F40EB86
:100BE000C25008BF20F0010040EA030070474900EE
:100BF00040EB0000013A28BFB0F5000FEDD2B0FA8B
:100C000080FCACF1080CB2EB0C0200FA0CF0AABFAD
:100C100000EBC25052421843BCBFD040184370474B
:100C200092F0000F81F4000106BF80F40000013251
:100C3000013BB5E74FEA41037FEA226C18BF7FEA28
:100C4000236C21D092EA030F04D092F0000F08BF6A
:100C50000846704790EA010F1CBF0020704712F051
:100C60007F4F04D1400028BF40F00040704712F190
:100C700000723CBF00F50000704700F0004343F0F5
:100C8000FE4040F4000070477FEA226216BF08462B
:100C90007FEA23630146420206BF5FEA412390EAEE
:100CA000010F40F4800070474FF0000304E000BFE4
:100CB00010F0004348BF40425FEA000C08BF704795
:100CC00043F0964301464FF000001CE050EA010259
:100CD00008BF70474FF000030AE000BF50EA01026E
:100CE00008BF704711F0004302D5404261EB41015B
:100CF0005FEA010C02BF84460146002043F0B64380
:100D000008BFA3F18053A3F50003BCFA8CF2083AA4
:100D1000A3EBC25310DB01FA02FC634400FA02FCAD
:100D2000C2F12002BCF1004F20FA02F243EB0200B4
:100D300008BF20F00100704702F1200201FA02FC16
:100D4000C2F1200250EA4C0021FA02F243EB020009
:100D500008BF20EADC7070474FF0FF0C1CEAD0524D
:100D60001EBF1CEAD15392EA0C0F93EA0C0F6FD00E
:100D70001A4480EA010C400218BF5FEA41211ED0EC
:100D80004FF0006343EA501043EA5111A0FB0131D8
:100D90000CF00040B1F5000F3EBF490041EAD371AD
:100DA0005B0040EA010062F17F02FD2A1DD8B3F129
:100DB000004F40EBC25008BF20F00100704790F098
:100DC000000F0CF0004C08BF49024CEA502040EAEA
:100DD00051207F3AC2BFD2F1FF0340EAC2507047B0
:100DE00040F400004FF00003013A5DDC12F1190FEE
:100DF000DCBF00F000407047C2F10002410021FA60
:100E000002F1C2F1200200FA02FC5FEA310040F177
:100E1000000053EA4C0308BF20EADC70704792F0F0
:100E2000000F00F0004C02BF400010F4000F013A28
:100E3000F9D040EA0C0093F0000F01F0004C02BF23
:100E4000490011F4000F013BF9D041EA0C018FE792
:100E50000CEAD15392EA0C0F18BF93EA0C0F0AD098
:100E600030F0004C18BF31F0004CD8D180EA0100BE
:100E700000F00040704790F0000F17BF90F0004F57
:100E8000084691F0000F91F0004F14D092EA0C0F39
:100E900001D142020FD193EA0C0F03D14B0218BFCC
:100EA000084608D180EA010000F0004040F0FE4012
:100EB00040F40000704740F0FE4040F440007047AE
:100EC0004FF0FF0C1CEAD0521EBF1CEAD15392EA2D
:100ED0000C0F93EA0C0F69D0A2EB030280EA010C1D
:100EE00049024FEA402037D04FF0805343EA1111B6
:100EF00043EA10130CF000408B4238BF5B0042F114
:100F00007D024FF4000C8B4224BF5B1A40EA0C00B8
:100F1000B3EB510F24BFA3EB510340EA5C00B3EBEA
:100F2000910F24BFA3EB910340EA9C00B3EBD10FD8
:100F300024BFA3EBD10340EADC001B0118BF5FEA2A
:100F40001C1CE0D1FD2A3FF650AF8B4240EBC25053
:100F500008BF20F0010070470CF0004C4CEA502014
:100F60007F32C2BFD2F1FF0340EAC250704740F463
:100F700000004FF00003013A37E792F0000F00F055
:100F8000004C02BF400010F4000F013AF9D040EAD3
:100F90000C0093F0000F01F0004C02BF490011F467
:100FA000000F013BF9D041EA0C0195E70CEAD1535F
:100FB00092EA0C0F08D142027FF47DAF93EA0C0F46
:100FC0007FF470AF084676E793EA0C0F04D14B022A
:100FD0003FF44CAF08466EE730F0004C18BF31F0DC
:100FE000004CCAD130F000427FF45CAF31F00043D6
:100FF0007FF43CAF5FE700BF4FF0FF3C06E000BF6F
:101000004FF0010C02E000BF4FF0010C4DF804CD91
:101010004FEA40024FEA41037FEA226C18BF7FEAA1
:10102000236C11D001B052EA530C18BF90EA010FA3
:1010300058BFB2EB030088BFC81738BF6FEAE17032
:1010400018BF40F0010070477FEA226C02D15FEACE
:10105000402C05D17FEA236CE4D15FEA412CE1D03A
:101060005DF8040B704700BF844608466146FFE701
:101070000FB5FFF7C9FF002848BF10F1000F0FBDE3
:101080004DF808EDFFF7F4FF0CBF012000205DF8DC
:1010900008FB00BF4DF808EDFFF7EAFF34BF012061
:1010A00000205DF808FB00BF4DF808EDFFF7E0FFFA
:1010B00094BF012000205DF808FB00BF4DF808ED4B
:1010C000FFF7D2FF94BF012000205DF808FB00BFAE
:1010D0004DF808EDFFF7C8FF34BF012000205DF890
:1010E00008FB00BF4FEA4002B2F1FE4F0FD34FF0B2
:1010F0009E03B3EB12620DD94FEA002343F0004385
:1011000010F0004F23FA02F018BF404270474FF032
:101110000000704712F1610F01D1420205D110F0B9
:10112000004008BF6FF0004070474FF0000070476C
:1011300042000ED2B2F1FE4F0BD34FF09E03B3EB41
:10114000126209D44FEA002343F0004323FA02F06D
:1011500070474FF00000704712F1610F01D1420259
:1011600002D14FF0FF3070474FF00000704700BFD2
:1011700053B94AB9002908BF00281CBF4FF0FF31FE
:101180004FF0FF3000F02AB8ADF1080C6DE904CE45
:1011900000F075F8DDF804E0DDE9022304B07047E3
:1011A000D0B50C4B002206460F46FFF7B5F900F00C
:1011B00017F80446FFF736F9074B0022FFF7ACF9A2
:1011C00002460B4630463946FEF7EEFF00F008F8BF
:1011D0002146D0BD0000F03D0000F041704700BF47
:1011E0004A0011D212F5001211D20DD56FF47873A6
:1011F000B3EB62520ED44FEAC12343F0004343EAFB
:10120000505323FA02F070474FF00000704750EA45
:10121000013002D14FF0FF3070474FF000007047AF
:101220004FEA40024FEA41037FEA226C02D15FEAB3
:10123000402C08D17FEA236C02D15FEA412C02D115
:101240004FF0000070474FF00100704738B5054679
:101250000C460022002328462146FFF7CFFB28B981
:1012600028462146BDE83840FFF79ABF284604F1DA
:101270000041FFF795FF404261EB410138BD2DE988
:10128000F04F07468C460846099E15463C461946CF
:10129000002B40F0C6808242B2FA82F746D94FB1A5
:1012A000C7F1200E24FA0EFE00FA07F3BD404EEA05
:1012B000030CBC404FEA15481FFA85FEBCFBF8F949
:1012C000220C08FB19C309FB0EFA42EA03439A45B4
:1012D00028D9EB1809F1FF3004D29A4502D9A9F1B7
:1012E00002002B44A3EB0A03A4B2B3FBF8F208FB01
:1012F000123302FB0EFE44EA0344A64514D92C190E
:1013000002F1FF3303D2A64501D9931E2C44A4EB6E
:101310000E0443EA00401EB1FC40002334607360B9
:10132000BDE8F08F4846DDE71346F0E702B9FFDE7F
:1013300087BB831A01214FEA154EAAB2B3FBFEFC0C
:10134000200C0EFB1C330CFB02F840EA03439845CB
:1013500063D9EB180CF1FF3004D2984502D9ACF1F7
:1013600002002B44A3EB0803A4B2B3FBFEFC0EFB6C
:101370001C330CFB02F244EA0344A2424FD92C195D
:101380000CF1FF3304D2A24202D9ACF102032C4487
:10139000A41ABEE7C7F1200C20FA0CF800FA07F3F4
:1013A00024FA0CFCBD404CEA03024FEA154EABB2E6
:1013B000B8FBFEFC110C0EFB1C800CFB03F941EA90
:1013C0000040814504FA07F423D928180CF1FF31B5
:1013D00004D2814502D9ACF102012844A0EB0900F6
:1013E00092B2B0FBFEFC0EFB1C000CFB03F842EAC1
:1013F000004398450FD9EB180CF1FF3204D2984501
:1014000002D9ACF102022B44A3EB080342EA0141EA
:1014100091E76146E2E76246F6E76046A2E7634687
:10142000B6E7834205D90EB1C6E90070002108462F
:1014300076E7B3FA83F181B9834201D3BA420AD87D
:10144000BC1A60EB030301209C46002E68D0C6E95D
:10145000004C002164E70846F7E7C1F1200C8B40FF
:1014600022FA0CF41C4302FA01F500FA01F327FA00
:101470000CF220FA0CFB4FEA14491343BBFBF9F8BA
:101480001FFA84FE09FB18BB1A0C08FB0EFA42EA8D
:101490000B42924507FA01F73ED9A21808F1FF3036
:1014A00004D2924502D9A8F102002244A2EB0A021A
:1014B0009BB2B2FBF9F809FB182208FB0EFE43EAC7
:1014C000024296452AD9A21808F1FF3304D2964564
:1014D00002D9A8F10203224443EA0040A0FB05938D
:1014E000A2EB0E029A42CE46984602D306D14F4551
:1014F00004D2B9EB050E63EB0408013886B1B7EBF3
:101500000E0362EB080707FA0CFCCB404CEA03031E
:10151000CF40C6E900379CE74046C7E74346DBE7D4
:101520003146FDE610F8012B11F8013B012A28BFD6
:101530009A42F7D0D01A7047034613F8012B002ABD
:10154000FBD1181A013870472DE9F14F9B460A9BD1
:1015500006464FF00040D8400F469246FEF772FF15
:10156000524604460D465B4630463946FEF7D4FFE8
:1015700002460B4620462946FEF7CEFF0AA3D3E9D2
:101580000023DDE90B8904460D46FFF755FA10B13B
:1015900005A5D5E900454B4642462046294601B0FF
:1015A000BDE8F04F08F0EABF0000C0FFFFFFDF41D9
:1015B0002DE9F74F0446C86816469A460D46FEF7D1
:1015C00053FF8046F0688946FEF74EFF02460B4601
:1015D00040464946FEF7A0FFDDE90C7B8046894680
:1015E000BAF1000F1BD0DAF80C00FEF73DFF0246FF
:1015F0000B4640464946FEF7D7FD8146F86821F084
:101600000048FEF731FF02460B4648464146FFF7C9
:10161000ADF80FA3D3E90023FFF7FAF950B13B4629
:10162000324629462046CDF830B003B0BDE8F04F31
:1016300009F02EB8084B009320466569074A08490F
:101640004FF49F73A847012003B0BDE8F08F00BF9F
:101650007B14AE47E17A943FF0F9020065F902008D
:10166000B5F70200000000002DE9F04F0B681E687E
:10167000012E89B0044688460FD00125934B019373
:10168000CDE90265924B00934469924A92495D23E9
:10169000A047284609B0BDE8F08F4B681D68012DB2
:1016A0000CD08A4B0193CDE902568C4B00934469D0
:1016B000884A89495E23A0470125EAE7002220F0F5
:1016C00035FE074640B9864B009366696023814A20
:1016D00084492046B047DCE783681B68002B04DCA4
:1016E000814B009366696123F1E700224146204661
:1016F00020F035FE814620B97C4B00936669632358
:10170000E5E7D8F8106026B9794B00936669652340
:10171000DDE73B78072B17D1A36B40F2024120464F
:10172000984720B9734B009366696B23CFE7B0628B
:10173000A36B40F202412046984720B96E4B0093BC
:1017400066696F23C3E7F06299F800203B78072AA7
:101750000CD1092B3DD0072B17D0684B009365693E
:1017600075235C4A5F492046A847A5E79A4230D0D6
:10177000CDE90232624B0193624B00936569782395
:10178000544A55492046A84796E7D9F810304BB13E
:101790000022CDE902325C4B01935C4B00936569FA
:1017A0007D23EDE740F201250095B36A5849594879
:1017B000002217F0A9FB0095F36A57484FF07E52BC
:1017C000002117F0A1FBD9F81030F361D9F80C30E3
:1017D00033623D78D8F81480092D3CD0072D40F0B5
:1017E0002181D9F810304BB10022CDE90232464BAD
:1017F0000193464B009365692523C1E7D9F80C9006
:101800004FF060514846FFF763FC00B34FF0605162
:101810004846FFF797F94149FFF75AFC054600286B
:1018200000F0BF804FF07C5300224846CDE90423EE
:10183000FEF71AFE3A4B0193CDE90201394B0093B2
:1018400065692623234A38492046A84734E7494694
:101850004FF06050DDE799F80000072870D1D9F803
:10186000103013F5004F09D0304ACDE90232304B29
:101870000193264B009365692B2381E7D9F80C501F
:101880004FF05E512846FFF723FCD0B14FF05E5178
:101890002846FFF757F92749FFF71AFC002800F000
:1018A0009D80254B00222846CDE90423FEF7DCFD70
:1018B000224B0193CDE902011A4B009365692C2359
:1018C000C0E729464FF05E50E3E700BF84370300CE
:1018D000AF010300A132030018FA0200D1FF020099
:1018E000CCFE0200B5F702006B090300D301030030
:1018F000F63203001133030028330300590C0300B0
:10190000F83D0300103E0300E2160300ED1903004A
:10191000000020C1E9950200D39502006F12033345
:101920006B330300773303004B3303000080FFFF6A
:101930008C3303006F1283320000F03E93330300B8
:10194000092812D0676908F0D3FD0646284608F03A
:10195000CFFD514B0193514B0093CDE90260504AAA
:1019600050492F232046B847A6E6D9F8103013F186
:10197000800F0AD06FF07F02CDE902324A4B01930B
:101980004A4B009365693023FAE6D9F80C004FF012
:101990006E51FFF775FB08BB454B0093656931231A
:1019A000DFE6F868FEF760FD8246D8F800008B4657
:1019B000FEF75AFD02460B4650465946FEF7ACFD6F
:1019C00006F1080432A3D3E90023FEF7CFFE07ABEC
:1019D000224608F099FD079BF3605AE6F868FEF787
:1019E00043FD0446D8F800000D46FEF73DFD07AB69
:1019F0000293052706F10803019322462B46009720
:101A0000FFF7A2FD0799F1601F22384620F039FC4C
:101A1000FEF718FD01F100431946FFF717F8B06112
:101A2000002536E6012D13D02846666908F060FDD2
:101A30000546012008F05CFD1E4B01931E4B0093F0
:101A4000CDE90250164A17494E232046B04733E6E7
:101A500099F80000012812D0676908F049FD064690
:101A6000284608F045FD134B01930C4B0093CDE93C
:101A700002600B4A0B494F232046B84709E6D8F8C5
:101A80000000FEF7F1FCC6E90001C9E7AFF30080F2
:101A9000140014001400243F42090300F83D030021
:101AA000A1320300E2FF02009F330300ED1903009F
:101AB000A4330300A30C0300103E03000000000049
:101AC0002DE9F04F4D698BB004460E460DB92AF052
:101AD00022F9002220F02AFC069068B9984B65692B
:101AE000009340F25713974A97492046A84701258B
:101AF00028460BB0BDE8F08F01223146204620F089
:101B000015FC089028B9914B009365694FF4AD73AB
:101B1000E9E702223146204620F008FC814628B938
:101B20008B4B0093656940F25D13DCE7032231467D
:101B3000204620F039FC042280463146204620F021
:101B4000F5FB834628B9834B009365694FF4B17365
:101B5000C9E7089B2A689B685B68059393FBF2F3CF
:101B600007930799059B02FB113272B10023CDE95F
:101B70000223794B01936569784B009340F2691316
:101B8000704A77492046A847B1E7069B1D7805F0C3
:101B9000F705012D05D0734B009365694FF4B773BA
:101BA000A1E7069B9B68196802290ED00223CDE9A4
:101BB00002136D4B019366696C4B00934FF4B8733D
:101BC000604A67492046B04792E771680968012971
:101BD00009D0674B0193674B0093CDE90215666905
:101BE0004FF4BA73ECE7D3E9013A0493D9F808301B
:101BF00031469B680993204620F0B1FB099B0746BC
:101C000048B95D4B666900934FF4BB734D4A4E492A
:101C10002046B0476CE781680A68022A0AD002238E
:101C2000CDE90223504B0193544B0093666940F277
:101C30007713C5E74868DDF810C0604509D0504B00
:101C40000193504B0093CDE9020C66694FF4BC73CD
:101C5000B6E789680798814209D04B4B01934B4BFB
:101C60000093CDE90210666940F27913A8E708995C
:101C700088680168022909D03B4B0193444B0093CB
:101C8000CDE9021266694FF4BE7399E78268524546
:101C900009D0404B0193404B0093CDE9022A66697D
:101CA00040F27D138CE7D9F808201068022809D08B
:101CB0002D4B0193394B0093CDE9020166694FF436
:101CC000C0737DE751680598814209D0344B019378
:101CD000344B0093CDE90210666940F281136FE73F
:101CE00092689A4209D0CDE902232F4B01932F4BE2
:101CF000009366694FF4C17362E7B8F1000F0FD02B
:101D0000D8F80820079952688A4209D01E4B0193DF
:101D1000274B0093CDE9022166694FF4C3734FE767
:101D2000DBF808201168022946D00223CDE902130E
:101D30000D4B01931F4B009366694FF4C5733FE74A
:101D4000CCFE0200AD390300B5F70200FF390300F5
:101D50001A3A0300323A0300E21603004E3A030037
:101D600018FA020012090300BE1B03003F0A030019
:101D70008437030000080300D3010300C4180300E4
:101D8000613A03006C3A0300823A03008C3A030084
:101D9000A23A0300C13A0300CC3A0300EB3A030035
:101DA000AD3B0300073B0300233B03002F3B030035
:101DB0004B3B03005F3B030051680498814209D00C
:101DC000A94B0193A94B0093CDE90210666940F23B
:101DD0008B13F5E6059992684B439A4209D0CDE9F9
:101DE0000223A34B0193A34B009366694FF4C67380
:101DF000E6E69BF82D3053B90122CDE902329E4B25
:101E000001939E4B0093666940F28F13D8E63368C6
:101E10001B68052B0AD00522CDE90232984B0193AD
:101E2000984B0093666940F29113C9E63669002E1B
:101E30003FF44DAE089B93F800A0069B1B78092B3E
:101E400040F0BB80BAF1090F09D0CDE902A38E4B57
:101E500001938E4B0093666940F29713B0E699F8B0
:101E60000030072B0AD00722CDE90232884B0193BC
:101E7000884B009366694FF4CC73A1E69BF8003061
:101E8000072B0AD00722CDE90232814B0193824B06
:101E90000093666940F2991392E6B8F1000F0ED0F4
:101EA00098F80030022B0AD00222CDE902327B4B97
:101EB00001937B4B0093666940F29B1380E6387870
:101EC000092813D0676908F013FB0646092008F0BB
:101ED0000FFB6D4B0193CDE90260724B00934FF401
:101EE000CF73714A71492046B84701E6DBF80CB060
:101EF000D9F80C105846FEF72FFF8246D8F80C0090
:101F0000FEF7B2FA804650468946FEF7ADFA024621
:101F10000B4640464946FEF747F921F0004950A3D9
:101F2000D3E900234946FEF769FD28B9604B0093C9
:101F300066694FF4D47369E6089BFD68D968069B0F
:101F4000D868FEF709FF5946FEF7BAFF06F1080800
:101F5000FEF78AFA4346324608F0D6FA294650463A
:101F6000FEF7AEFF06F10C0906F10408FEF77CFA55
:101F70004B46424608F0C8FA069B1B69B3613B69B1
:101F8000F361236C002B3FF4A2ADDDE90421514342
:101F9000890006F1100220469847054600287FF484
:101FA000A7AD079B04995943236C06F114028900DD
:101FB00020460BB0BDE8F04F1847BAF1010F0AD028
:101FC0000123CDE902A33B4B0193304B009366699B
:101FD00040F2C313F4E599F80030012B09D0CDE9A4
:101FE000023A344B01932B4B009365694FF4E27333
:101FF000C6E59BF80050012D0AD02E4B0193012617
:10200000254B0093CDE9025640F2C5136569B7E54B
:10201000B8F1000F0ED098F80030012B0AD0012241
:10202000CDE90232234B01931D4B0093666940F2C8
:10203000C713C5E5387801283ED0676908F058FA1B
:102040000646012008F054FA1A4B0193154B0093F1
:10205000CDE9026040F2C91343E700BFAFF300804F
:10206000F168E388B5F8E43E613A03007F3B030082
:102070009F3B0300B93B0300D93B0300DE3B030059
:10208000D13C03009120030042090300FC3B030004
:10209000860C0300123C0300253C0300372003009C
:1020A0003C3C0300F83D0300AD390300E2FF0200B1
:1020B000473C0300A30C0300236C002B3FF407AD47
:1020C000DDE90412514306F1100270E70000000040
:1020D0002DE9FF47CE4A21F00043934205460C46C6
:1020E0000E465BD9CB4A93421DD9CB4A93420ED9B7
:1020F000C1F313030343024603D00B46FEF756F821
:102100004DE1002980F24D81C44C002549E1A8A38E
:10211000D3E90023FEF790FC28B1002004B0BDE80D
:10212000F04729F0C8BD002E0CDAA3A3D3E90023A1
:1021300028462146FEF73AF800220023FEF75EFC0F
:102140000028E1D19EA3D3E9002328462146FEF7CB
:10215000E3F9002EB4BFB24BB24B0022FEF726F8D3
:10216000FEF774FC8246FEF76DF997A3D3E90023CE
:1021700080468946FEF7D0F902460B46284621469E
:10218000FEF712F892A3D3E9002306460F46404615
:102190004946FEF7C1F98046894616E0A24A9342B5
:1021A00040F2A980A14A9342CCD8002986A3D3E962
:1021B0000023C0F29580FDF7F7FF0FF21429D9E94B
:1021C000008906460F464FF0010A42464B4630460C
:1021D0003946FDF7E9FF02460B4605460C463046F8
:1021E0003946FDF7E1FF42464B46FDF7DDFFCDE9FD
:1021F00000018C4B002228462146FEF78DF9064649
:102200000F4602460B4628462146FEF785F972A383
:10221000D3E9002380468946FEF77EF970A3D3E90F
:102220000023FDF7C3FF42464B46FEF775F96EA348
:10223000D3E90023FDF7B8FF42464B46FEF76CF9A1
:102240006BA3D3E90023FDF7B1FF42464B46FEF7EF
:1022500063F969A3D3E90023FDF7A6FF42464B4685
:10226000FEF75AF9724B0022FDF7A0FFCDE90201FB
:1022700002460B4630463946FEF74EF902460B46FB
:1022800000206C49FDF790FF02460B4606460F46BC
:10229000DDE90201FDF788FF3246CDE902013B4648
:1022A00028462146FEF738F902460B4600206249CF
:1022B000FDF77AFF02460B46DDE90201FEF756FA0A
:1022C00042464B46FEF728F902460B46BAF1000F8C
:1022D00027D128462146FEF71FF942464B4614E017
:1022E000FDF764FF0FF21819D9E9008906460F4679
:1022F0004FF0FF3A69E7514A93420FD842A3D3E91E
:102300000023FDF753FF02460B46FDF74DFF024643
:102310000B4628462146FDF747FF40E04FF0000AF4
:1023200067E7DDE90023FDF73FFF2A462346FEF776
:10233000F3F8DDE90023FDF737FF42464B46FDF792
:1023400033FFBAF1FF3F06460F460CD102460B465B
:1023500028462146FDF728FF324B0022FEF7DCF825
:10236000304B0022D7E7BAF1010F78D1344B00226D
:1023700028462146FEF742FB002863D0294B002265
:1023800028462146FDF712FF02460B4630463946E5
:10239000FDF70AFF00224FF04043FEF7BDF8054667
:1023A0000C462846214604B0BDE8F087AFF3008014
:1023B000EF39FAFE422E864059F3F8C21F6EA5018E
:1023C000FE822B654715F73F0000E0FE422EE63FF8
:1023D000763C7935EF39EA3D2DC3096EB7FD8ABEEB
:1023E0003952E686CACFD03EB7DBAA9E19CE143F3B
:1023F0008555FE19A0015A3FF41011111111A13F8A
:10240000763C7935EF39EABD9C7500883CE4377E2F
:1024100079684340412E8640FFFFEF7F0000F0BF08
:102420000000E0BF0000E03F422ED63FB1A2F03FE7
:102430000000F03F0000084000001840FFFF8F3C04
:102440000000D0BF32463B4628462146FDF7ACFE91
:1024500002460B46FDF7AAFE224B00224EE60AF189
:102460000103392B4FEA0A560DD92A462346FDF7B8
:102470009BFE02460B4600201A49FDF795FE194BBC
:102480007118002247E7BAF1130F17DC2A462346DA
:102490004FF40017FDF788FE47FA0AFACAF17F5990
:1024A0004FF0000809F5401902460B4640464946E0
:1024B000FDF77AFE731805461C4672E7CAF57F7A67
:1024C0000AF1030A4FEA0A530022FDF76FFE0246A3
:1024D0000B4628462146FDF767FE024B0022FDF71A
:1024E00065FEE7E70000F03F2DE9F843C1F30A5825
:1024F000A8F2FF36132E02460B4607460C46054649
:1025000033DC002E14DA34A3D3E90023FDF74EFEAA
:1025100000220023FEF790FA38B1002C58DA24F09C
:1025200000431D4301D02E4C002523462F4625E0B5
:102530002C4A42FA06F801EA080202431ED026A3FA
:10254000D3E90023FDF732FE00220023FEF774FAE0
:102550000028EAD0002CBEBF4FF4801343FA06F6E1
:10256000A41924EA08040025DFE7332E0ADDB6F5B6
:10257000806F03D1FDF71AFE07460B463846194611
:10258000BDE8F883A8F213484FF0FF3222FA08F8AA
:1025900018EA000FF2D010A3D3E90023FDF706FEDE
:1025A00000220023FEF748FA0028BED0002C02DAF1
:1025B000142E03D1013425EA0805B6E70123C6F13C
:1025C000340603FA06F63544BD4238BFE418F2E794
:1025D00000252C46A9E700BF9C7500883CE4377EA7
:1025E0000000F0BFFFFF0F00F8B506460F4600F0F1
:1025F0003BF81B4B93F90030013304460D4612D0D3
:102600003046394629F05CFB68B111A3D3E90023B9
:1026100030463946FEF710FA40B11EF019FC114D54
:1026200022230360002420462946F8BD0AA3D3E9EB
:10263000002330463946FEF7E1F90028F3D01EF0BA
:1026400007FC2223036000240025ECE7AFF30080A1
:10265000EF39FAFE422E864051302DD5104987C001
:10266000700200200000F07F2DE9FF47AA4F21F003
:102670000043BB4205460C464FEAD1762FD9A74FFF
:10268000BB4211D9C1F313020346134306D00246DD
:102690000B46FDF78BFD05460C4600E0E6B92846E3
:1026A000214604B0BDE8F08785A3D3E90023FEF7F7
:1026B000C3F938B184A3D3E9002310461946FDF7C6
:1026C0002BFFE8E782A3D3E9002328462146FEF743
:1026D00095F9002800F0828000252C46DFE7904A1B
:1026E000934240F2A7808F4A934277D88E4B03EBF8
:1026F000C603D3E90023FDF757FD8C4BF4002344B8
:10270000D3E90034CDE90034C6F1010A8046894698
:10271000AAEB060ADDE9002340464946FDF744FDE1
:1027200005460C462A46234628462146FDF7F4FE78
:1027300069A3D3E9002306460F46FDF7EDFE68A323
:10274000D3E90023FDF730FD32463B46FDF7E4FEBA
:1027500065A3D3E90023FDF729FD32463B46FDF78B
:10276000DBFE63A3D3E90023FDF71EFD32463B46A3
:10277000FDF7D2FE60A3D3E90023FDF717FD324633
:102780003B46FDF7C9FE02460B4628462146FDF7AB
:102790000BFD02460B4606460F4628462146FDF72E
:1027A000BBFECDE90201BAF1000F5AD100224FF071
:1027B000804330463946FDF7F7FC02460B46DDE91B
:1027C0000201FDF7D3FF2A462346FDF7EDFC024642
:1027D0000B4600205649FDF7E7FC5CE7554848A347
:1027E000D3E9002300EBC60621462846FDF794FEF8
:1027F000D6E90023FDF7DAFCFEF728F98246FDF75B
:1028000021FE41A3D3E9002306460F46FDF784FECF
:1028100002460B4628462146FDF7C6FC3CA3D3E9F9
:1028200000238046894630463946FDF775FECDE9DE
:1028300000016FE7404A93420ED823A3D3E9002357
:10284000FDF7B4FC3A4B0022FEF7F6F838B1384BEE
:102850000022284621461CE74FF0000A62E7824624
:1028600060E732463B4600204FF08041FDF79CFC7C
:1028700002460B46DDE90201FDF778FF02460B46F2
:10288000DDE90001FDF790FC42464B46FDF78CFC6C
:1028900002460B4600202649FDF786FC6FF47F7246
:1028A000924502DB01EB0A51F5E60AF57A7A01EB73
:1028B0000A5100224FF0B87301E700BFAFF3008068
:1028C000EF39FAFE422E86409C7500883CE4377E44
:1028D00051302DD5104987C0D0A4BE726937663EED
:1028E000F16BD2C541BDBB3E2CDE25AF6A56113F10
:1028F00093BDBE166CC1663F3E5555555555C53FF7
:10290000FE822B654715F73F0000E0FE422EE63FB2
:10291000763C7935EF39EA3D412E8640FFFFEF7F67
:10292000422ED63FB1A2F03F80D6020090D60200E0
:102930000000F03F70D60200FFFF2F3E70B54A4BFB
:102940001A68D20786B006D401221A604749484A5D
:1029500048481EF044FA484D464B2B60474B484CC4
:102960001A68D118D3582160CB1A1A88042A0FD9B3
:102970009A8812B18A58032A0CD042493D48032351
:102980001FF0B8FD404806B0BDE870401DF052BDD4
:102990000022F2E73D4E3368DB0709D43C4805F0DE
:1029A00059FF0123324A3B49394833601EF017FA78
:1029B000394E336813F0010312D102932B6801934F
:1029C0004FF42A330093324A344B2168344806F0DE
:1029D00069FD0123264A3349314833601EF0FFF96F
:1029E000314E2F48306006F0D1FE044628B12F4901
:1029F00028681FF07FFD2E48C5E70146306806F0C5
:102A000089FD2C4B21461860306806F09BFD2A4D4D
:102A1000284628F0C2FD28B32A69A968136843F440
:102A20000053136028460B68244A0D21984720461E
:102A3000059401F047F9A8B9214C059B93B9A36807
:102A40001B6D1BB105AA042120469847AB684FF4C3
:102A500000515B6928469847002140F6CD401AF0A6
:102A6000A7FDEAE706B070BDFC060020D90302000E
:102A70003C1A00200000002008070020B8CC02000B
:102A80001007002070E10200B7E1020000070020FB
:102A9000AC070020DB030200F8060020B828002065
:102AA00014070020AD1D020004070020C5E102004C
:102AB000DEE102000C070020D0C202000100060087
:102AC00000C302002DE9F04FDFF88490DFF884A006
:102AD00091B00A254FF0405800241CF0A1FE064694
:102AE0001CF09EFED9F8003007463046D3F804B0FB
:102AF000FEF7DEF84146FEF72FF906463846FEF7A8
:102B0000D7F84146FEF728F901463046FEF71AF895
:102B10004BF804000434B4F5804FDED1DAF800003D
:102B200006F010FF28B10C4811B0BDE8F04F1DF0C1
:102B300081BC013DD0D1094A402168461CF0D8FE35
:102B4000074869461DF076FC11B0BDE8F08F00BF64
:102B50000C07002004070020F4E1020001E202005B
:102B600004E202000B6801330B60014B1B6818473D
:102B700004000020014B1860704700BF04000020D3
:102B80001FB5002402460B46009403A90248039493
:102B900000F044F904B010BD652B00002DE9F84F9A
:102BA000B0F81C9019F00808044693460DD001298E
:102BB0000CBF49F0100949F02009A0F81C908BF3D4
:102BC0001188BFF36F8FBDE8F88F09F0070902295C
:102BD00007D120461DF055FC0028F0D00128A38B1A
:102BE0004ED1A769A18B002F15DA256821F00701C6
:102BF000C4E9008841F00101A1830026A18B01F006
:102C0000070ACA4502D0A368002B5AD10DB9002E7D
:102C100071D0002356E001F007035A1F012A1ED885
:102C200021F00701062B256889B2C4E900880AD182
:102C30003DB1E38B2A46126801339BB2002AFAD1D8
:102C4000E38341F00201A18320461DF01AFC0646F1
:102C50000028D3D0A38B43F02003A383CDE7042B1C
:102C60000CD121F0070189B2A18320461DF009FC97
:102C700005460028C1D041F02001A1830025BCE712
:102C8000032809D1226923F00703166843F00603DD
:102C9000A38300252F46B1E7042806D1226923F03B
:102CA0000703566843F00403F2E7052806D12269BA
:102CB00023F00703966843F00503E9E700252E4655
:102CC000E8E7012341F00801A1838BF31188BFF3EA
:102CD0006F8FFBB985BB16B11F492046B0474FF037
:102CE0002003EFF3118B83F31288BFF36F8FA38B55
:102CF00023F00803A383A38BDA0625D523F0100362
:102D0000A3830121B4F81C9009F0070900297FF47E
:102D10005EAF54E7A1680029DCD0D1F80090D1F86B
:102D200004B03B4652462046D847B9F1000FD1D0F7
:102D30004946D9F80090F2E729463B4652462046DC
:102D40002D681DF0BAFBC5E713F020011EBF23F06C
:102D50002003A3830221D5E7E7040200F0B5084E63
:102D6000026803460A270020114601320C78A55D4F
:102D70006D0701D41960F0BD07FB00403038F3E760
:102D8000CB4003002DE9F84F15469A46D378224AE6
:102D900013F802B06F2B80460F460BF0030B29D0BF
:102DA00024D8582B14BF0A261026DDF82890324666
:102DB000002340463946FEF7DBF9092AD4B21ED873
:102DC0003034B045E4B277F1000309F8014D01D386
:102DD000D14511D82B789B0605D5082E15D1AB7897
:102DE00043F00803AB704846BDE8F88F03F0F703E3
:102DF000702BD7E70826D8E780460F46D7E7BBF108
:102E0000010F0CBF37345734DBE7102EEBD1AB7812
:102E100043F01003E6E700BFCB4003002DE9F04F7D
:102E2000824693B08B4691461C46002599F80000D7
:102E300008B9284641E309F101032528029306D089
:102E40005946D0470028C0F238830135F5E11822F1
:102E500000210CA828F0D2FF99F80130252B5AD078
:102E600009F10102164612F8013B2B2B00F08B8072
:102E700079D8202B00F08C80232B00F08E809DF8D9
:102E8000383003F04402442A03D16FF386138DF8DF
:102E900038309DF83830059643F080038DF838308F
:102EA00033782A2B7ED19DF8393043F001038DF819
:102EB0003930731C05931A782E2A9DF839200CBFDF
:102EC0000121002161F341028DF839200BD15A1CF8
:102ED00005925A782A2A7BD19DF8392042F00402C3
:102EE0008DF839200233194611F8010B6C2800F0D7
:102EF000B6807DD8682800F084806A2800F0B98008
:102F00004C2800F0BD809DF839206FF3C6028DF883
:102F10003920194680E009F1020202928DF83B3017
:102F20009DF83930D90740F14A8154F8048BB8F143
:102F3000000F07DA9DF8382042F004028DF838209F
:102F4000C8F100085A0740F1438154F8047B002F70
:102F500080F242819DF839306FF341038DF83930AA
:102F60004FF0FF3738E12D2B06D0302B87D19DF85D
:102F7000383043F0400303E09DF8383043F0040359
:102F80008DF838306EE79DF8383043F00803F7E7E6
:102F90009DF8383043F01003F2E79DF8383043F0E5
:102FA0002003EDE705A8FFF7D9FE059BB34281D0CA
:102FB0009DF838100F90C1F3400242EAD0725200DF
:102FC00062F07F0201F07D010A438DF8382071E73D
:102FD00005A8FFF7C3FE9DF838301090C3F34002F8
:102FE00042EAD07060F341038DF83830059B7AE7F0
:102FF00074289DF8392040D07A2884D113460622BF
:1030000028E05A78682A9DF8392021D1012161F3FE
:10301000C6028DF83920991C0B4613F8012B029338
:10302000782A9DF839308DF83B2000F2C080572A6D
:1030300033D8412A03D0453A022A00F2B8809DF8DD
:103040003A30042262F302038DF83A30012385E01E
:103050001346022262F3C6038DF83930DCE75A7852
:103060006C2A9DF8392001D10421D0E713460322B0
:10307000F0E79DF839300522ECE713460722E9E72F
:10308000BDF8383023F4F04323F0020343F48043C7
:1030900043F00203ADF83830BEE7A2F15801202911
:1030A00000F2858001A050F821F000BF71310000CE
:1030B000AF310000AF310000AF310000AF31000090
:1030C000AF310000AF310000AF310000AF31000080
:1030D0003F300000AF31000071310000313100009D
:1030E0003F3000003F3000003F300000AF310000B3
:1030F00031310000AF310000AF310000AF310000CE
:10310000AF310000793100007131000095310000CD
:10311000AF310000AF31000095310000AF31000049
:1031200071310000AF310000AF310000713100009B
:103130009DF83A10012003F0780360F30201402B60
:103140008DF83A1002BF9DF8381041F001018DF85A
:103150003810632A31D1003B18BF01239DF8382075
:10316000C2F340010B4363F341028DF83820D7E6E8
:103170009DF83A100220DEE79DF83A2003F078032C
:10318000A3F14000032161F3020243428DF83A208B
:103190004341E3E79DF83A20032113F0780F61F3F0
:1031A00002028DF83A2014BF01230023D6E79DF8D0
:1031B000383043F001038DF838300023CEE79DF915
:1031C0003820002AB4BFDDF83C804FF0FF38B9E664
:1031D0009F077FF5C5AE109F9DF839100023CDE9FC
:1031E0000F339DF83A3003F00703012BC1F3C301FD
:1031F00036D1CB1E042B23D8DFE803F003090922C4
:10320000220054F8043BDA17CDE90C3206E007340B
:1032100024F00704F4E80223CDE90C239DF83830AC
:1032200013F003065AD0029B4A46594650461DF0F9
:10323000E4FB0028C0F241810544DDF80890F5E583
:1032400054F8043B01294FEAE372CDE90C3202D174
:103250009DF93030D7E70229E0D1BDF93030D2E70F
:10326000022B29D1CB1E042B13D8DFE803F0030A6D
:103270000A12120022680C920023201D0D930446AE
:10328000CCE7E01D20F00700F0E80223CDE90C2395
:10329000F5E754F8043B0C9301294FF000030D931C
:1032A00005D19DF830300C9300230D93B6E7022929
:1032B000B4D1BDF83030F6E7042B09D1E31D23F07B
:1032C000070303F10804D3E90023CDE90C23A5E7A4
:1032D000032B04BF54F8043B0C939FE79DF83B007D
:1032E0007828AAD8622820D825283FF4A9AD5828E4
:1032F000A3D10DF12E030093DDE90C0106AB0EAA5C
:10330000FFF740FD8146002F0DF12E000BDB9DF8ED
:103310003820A0EB09036FF386129F428DF8382006
:1033200001D9FB1A0F9307463DE06338152884D86E
:1033300001A252F820F000BFB7330000193400009A
:103340003B3200003B3200003B3200003B320000C9
:10335000193400003B3200003B3200003B320000D9
:103360003B3200007334000041340000453400005B
:103370003B3200003B320000913300003B32000042
:10338000413400003B3200003B3200004134000079
:10339000002FDDF830900ADB3946484628F010FE51
:1033A00009EB00070026B9F1000F0CD145E74846AC
:1033B000FEF7C2F8F4E70C9B8DF8183000260DF1EB
:1033C00019070DF11809A7EB090306B101339DF8A0
:1033D0003A20D00666D5023352060F9948BF109A9C
:1033E0000B4448BF9B18B8F1000F73DD9DF83820DF
:1033F000A8EB0308C2F38003039353076AD4500673
:103400005ED53EB159463046D047002855DB039B78
:1034100001351E46302354E01E070FD413F010066A
:1034200018BF2026DDE90C23002BBFF662AF524205
:1034300063EB4303CDE90C232D265AE72B26F1E756
:10344000002656E70C9840B30DF12E0300930EAA08
:1034500006AB0021FFF796FCBDF83A3003F0EF030E
:1034600043F4F04343F010038146ADF83A300026B0
:1034700049E70C9B07293FF6E0AEDFE801F00C04BA
:10348000060C08080C0C1D70D7E61D80D5E6EA175F
:10349000C3E90052D1E61D60CFE62E4F0646A7F1E4
:1034A000050990E7110748BF013395E718465946CB
:1034B0000393D0470028039B04DA13B0BDE8F08FD4
:1034C000202345444246002AA5EB080108F1FF38B5
:1034D000ECDC0D462EB159463046D0470028ECDBD7
:1034E00001359DF83A30D90601D41A0705D5594659
:1034F0003020D0470028E0DB01359DF83A30DB066C
:1035000006D59DF83B005946D0470028D5DB01354C
:103510000F9E2E44731B002B15DC3B464A46594632
:1035200050461DF06AFA0028C7DB0544A844A8EB02
:103530000503002B7FF781AE59462020D047002895
:10354000BBDB0135F3E759463020D0470028B4DB18
:103550000135DFE70DE2020038B5044C044DAC4202
:1035600000D338BD54F8043B9847F8E7F8C402008C
:10357000F8C4020038B5054C256804EB850405B98C
:1035800038BD54F80439013D9847F8E7ECC402000F
:103590000C4BF0B45F6A0C4E0C4BB34203D36FF08C
:1035A0008500F0BC70475D68BD4209D31C693CB121
:1035B00095F802C00579AC4502D12346F0BC184706
:1035C0002433EAE7401A0020EC030020C80300205F
:1035D0002DE9F047134CDFF85080DFF85090054696
:1035E0000E461746444503D36FF08500BDE8F087CB
:1035F0006268D9F824309A4212D3A36983B19078D3
:103600002979884205D13A4631462846BDE8F04737
:1036100018475279012A03D13A463146284698473D
:103620002434DFE7C8030020EC030020401A002008
:103630002DE9F0410B4CDFF8308005460E46174669
:10364000444502D36FF0850009E063690BB9243467
:10365000F6E73A463146284698470028F7D1BDE8B4
:10366000F08100BFC8030020EC03002007B5837879
:103670008DF800300379427943EA0223ADF8023035
:10368000C378684603F003038DF8043002F010F9A4
:1036900010F1780F04D018B1002003B05DF804FBDE
:1036A0009DF8000002F08AF910F1780F01D000288F
:1036B000F2D1024B012083F8B900EEE7401A002056
:1036C000034B0022C3F8BB20C3F8BF20704700BFE4
:1036D000401A002070B50B4B0B4CA34201D30020C5
:1036E00070BD196A1E7F00220439D5B2AE4201D8DE
:1036F0002433F2E7013211F832508542F5D101202E
:10370000EEE700BFC8030020EC030020094808B51D
:103710000378C3F341130A3350F823303BB100F16F
:10372000080200F110019847C043C00F08BD1846B9
:10373000FCE700BF401A002004282DE9F047DFF81D
:10374000888004460E460ED1FFF7BAFFDFF87C9062
:1037500099F8B9305BB100F0B3FD042C01D0012C15
:1037600005D11B4D16E00528F0D00128EED0184DEC
:1037700045451ED3154B1B6A1BB331462046BDE899
:10378000F0471847D5F820A000272A7FFBB29A42BD
:1037900003D824354545F5D307E00AEBC3030137C9
:1037A000187902F035F90028EFDA002389F8B930EA
:1037B000DDE7EB681BB132462146284698472435A1
:1037C000D6E7BDE8F08700BFEC030020401A0020D8
:1037D000C803002073B5C4B263060D468DF80740D8
:1037E00007D02046FFF776FF88B10F4B93F8BA0059
:1037F00068B10D4E204665B102F07CF8F3690BB953
:10380000012004E008200DF107019847284602B086
:1038100070BD02F097F8F369002BF1D00DF10701AC
:1038200009209847ECE700BF401A00202DE9F04737
:10383000A84EB36905460F46904663B9287800F054
:103840001F00012800F0A680022800F00E8138B188
:103850006FF0150095E098470028EFD1002090E028
:1038600095F900206B78002A31DA062BD8F8002071
:1038700010D0082B25D0002BEAD1012153701170F4
:1038800096F8C310002918BF022343F001031370F8
:1038900002231AE06B881A0A111F0129D8D9072AB6
:1038A000D6D8D9B2736A1C78002CD1D05D789542F5
:1038B00003D1814200F0128101302344F3E71B78E9
:1038C00012E196F8BA30137001233B6059E0013BD6
:1038D000082BBDD801A252F823F000BF75390000B3
:1038E00051380000873900005138000001390000CC
:1038F0005138000051380000513800000D390000E7
:10390000A87801F0C3FF0028A8D0A1E76C8844B1D3
:103910004FF0FF08776A0020C1463C786CB9002858
:1039200096D0FFF7CDFE6B8886F8BA30F369002B8E
:1039300094D069490320984790E77B78042B0CD0FA
:10394000052B0DD0022B05D197F805806A884245DA
:1039500008BF01203B781F44DFE797F80390F9E7A1
:103960006B884345F6D1B9F1000FF3D13846FFF724
:103970007DFEEFE76B88012B7FF46AAF002086F8AD
:10398000C300BDE8F0876B88012B7FF461AF86F838
:10399000C33063E796F8BA30002B3FF459AF746A2E
:1039A000B5F804C0287923461A78002A3FF450AFAE
:1039B0005978022904D193F804E0864500F29680F4
:1039C0001344F1E7107050703960DAE70C449BE063
:1039D0000B287FF43DAF00274FF0FF0AD046B946D1
:1039E00006E06378042B0FD0052B22D023781C44EB
:1039F0002378002BF5D1F36913B149460720984786
:103A0000002F7FF42BAF23E794F802A0AA8894F844
:103A1000038092455346E9D1698888451FFA88F2A8
:103A2000E4D1072B1ED83344A14683F8BB200127DD
:103A3000DCE7AB885345D9D1AB7843450DD0A778A7
:103A4000384600F01FFC384601F0E2FF10F1780F15
:103A5000EDD0B0FA80F77F09C8E72046FFF706FEF1
:103A60000746C3E7A1460027C0E795F900206B7819
:103A7000002A19DA002B7FF4EBAE2C7963060AD00A
:103A80002046FFF727FE00283FF4E2AE96F8BA3052
:103A9000002B3FF4DDAED8F800502046294601F057
:103AA00071FF00206870F3E6012B08D0032B7FF430
:103AB000CFAE6B88002B7FF4CBAE012103E0698889
:103AC00000297FF4C5AEA888FFF784FE00287FF4A4
:103AD000C5AEBDE6401A0020FA1A0020022AC8F836
:103AE00000307FF4ECAE5B883B60B7E695F90030C0
:103AF0006878002BBFF66CAFD8F8002000283FF4A0
:103B000061AF0A287FF4A4AE217800293FF4A0AE6B
:103B10006378042B7FF45AAFA3789C457FF456AFAB
:103B2000072B96BF9B19002393F8BB30137001231A
:103B3000DAE700BF13B5134C237DCBB9E268A16867
:103B4000019201AB80201DF01DF8019AA368134477
:103B5000A360E3689B1AE36043B93AB12369E28842
:103B60009A4203DD9B0601D10123237502B010BDEB
:103B700000231A4619468020237502B0BDE8104084
:103B800001F06CBF401A002030B585B0002302461A
:103B90000D46019300285FD100293CD108220B4635
:103BA0000DEB02011DF097F9002804DA802001F0E6
:103BB000A1FE05B030BD2D4C9DF809309DF80820C0
:103BC0006370BDF80A306380BDF80C302270A380AA
:103BD00004F13801BDF80E30E3801206C4E9035544
:103BE000A16025750AD4802B04D9802001F082FEC3
:103BF0000020DCE713B1C4E90333DAE7FFF786FD01
:103C00000028D3D0E28823699A42D4BFE260E360FF
:103C1000FFF790FFCDE7154CD4E90215002D01AB5D
:103C200004DC1DF058F90028C3DABFE72A461DF06E
:103C300052F90028D9DB0199A268E3680A445B1AAB
:103C4000A260E360002BB4D104F13803A360FFF756
:103C50005DFD0028DCD1A9E78028AAD1034BDA68F2
:103C6000002AD5D11B7D002BD2D1A2E7401A00201B
:103C7000054B064A9A62064ADA62064A1A63064AFF
:103C800058629A6100207047401A00202D380000C9
:103C90009135000031360000D1350000084B10B5D9
:103CA00093F8B84034B900F0A3F930B1FFF7E0FF62
:103CB000204610BD6FF07700FBE74FF0FF30F8E7CC
:103CC000401A00202DE9F3410446354D35484FF0A8
:103CD000FF324FF0FF3318F047FF95F8B860002E21
:103CE0005BD131482C62E86101F0CEFF01F090FD1C
:103CF000041E36DB00F00CFB041E32DB402368465A
:103D0000ADF802308DF804608DF8006001F0D0FD50
:103D1000041E26DB802768468DF8007001F0C8FD80
:103D2000041E1EDB2149304601F09AFF041E18DBF9
:103D30001E49384601F094FF041E12DB1C4CDFF8CC
:103D40007480444514D3002001F038FE041E08DBC3
:103D5000802001F033FE041E03DB012385F8B83018
:103D60000024104818F078FF204602B0BDE8F0812A
:103D7000276A0026227FF3B29A4201D82434E0E772
:103D800007EBC30257F83310107901F069FF0136D1
:103D90000028EFD04FF0FF34E3E76FF07704E0E75F
:103DA000401A0020E802002039370000893B00005B
:103DB000C8030020EC03002030B51F4B8BB005AAD0
:103DC00003F1100518685968144603C40833AB4260
:103DD0002246F7D11B7823701022002101A828F079
:103DE0000DF812220021154828F008F8102101A82A
:103DF0001DF060F900281BDD0828B8BF082008382E
:103E000001AB0E4A1844002110F8013B0AAC04EB48
:103E1000131403F00F0314F8144C14700AAC234469
:103E2000013113F8143C5370082902F10202EBD15E
:103E300002480BB030BD00BF0EE20200B8D0022035
:103E40002DE9F04F044685B000254FF0011BA9462F
:103E50002E46AA46207820B9614B02349C421FD0DE
:103E6000F2E76378052B05D8DFE803F078040378E0
:103E70000720A24623781C44ECE7E378002BF9D115
:103E8000A37883B109F101095FFA89F9F2E7726851
:103E9000944200F09D8024369E42F8D34FF0FF30CC
:103EA00005B0BDE8F08F4F4E4F4BF5E7002EF5D033
:103EB00000230121327F9342F0D2326AA77802EBCD
:103EC000C3021079874201D00133F3E70127E0787C
:103ED00094F805C000F003008DF80C00207940EA4A
:103EE0000C20ADF80A0094F9020000285FFA87F868
:103EF00028DA07F1100001FA00F010EA0B0F29D1BF
:103F000068F07F008DF8080002A8CDE900321CF0AF
:103F1000CAFFDDE900320121E0B99DF80830A37045
:103F200013F0800F1CBF08F110085FFA88F81371B6
:103F30000B4615BF01FA08F8BB404BEA080B4BEAE9
:103F4000030B97E701FA07F010EA0B0F02D18DF887
:103F50000880D9E70137102FB9D1B5E7032D1DD15E
:103F6000FFF72AFF074668B1FDF7E6FA804648B139
:103F70001E48FDF7E1FA804504D142463946A01CAF
:103F800027F001FF23786FF00201E218091B04EB10
:103F90005303D14213D50135EDB26BE7002DF1D1BA
:103FA000BAF1000F3FF47AAFA4EB0A038AF80230AB
:103FB000C3F307238AF803308AF80490EBE74FF045
:103FC000000002F8010C13F8010902F8020DE0E705
:103FD000B368002B3FF456AF49462046984751E757
:103FE000C7030020C8030020EC0300200EE20200FB
:103FF00008B50448FFF724FF0028024818BF002036
:1040000008BD00BF1003002010B5094B00211A465F
:104010001C78844204D15C6814B102EB811010BD9D
:104020000131042903F14003F2D10020F7E700BF7A
:10403000041B00202DE9F34150F8283C10F82C6CAB
:104040001033044610D1036950F8202C99073CD551
:1040500002BB13F0040304D11A46194630461CF083
:1040600091FD002344F8283C54F8283C10330ED02E
:1040700054F8185C5DB154F81C7C54F8148C27F08B
:10408000EAFA00284CD02E48214627F0B8FB02B0AF
:10409000BDE8F08150F8241C01AB30461CF072FDE5
:1040A00010B16FF01503DDE7019A54F8243C134476
:1040B00044F8243C54F8203C9B1A44F8203C54F823
:1040C0001C3C134444F81C3CCEE750F8241C01ABC4
:1040D000304601F03BFD0028E3D1019D54F8243C1B
:1040E0002B4444F8243C54F8203C5B1B44F8203C0F
:1040F00054F81C3C2B4444F81C3C002DB1D03046F5
:1041000001F0C8FDB5FBF0F303FB1055002DA8D15D
:1041100054F8203C002BA4D0304601F05FFDA3E70B
:1041200044F8180CA4F1100018F004FE54F8283CD0
:104130008C33ACD0424639463046A847A7E700BF8B
:10414000F00300204B1E012B73B506460D460FD819
:10415000FFF75AFF044668B9012D09D101AB0122CE
:104160000DF10301304601F0F1FC019B002BF5D16C
:1041700002B070BD27F06FFA04F12C0108B1012DD7
:1041800005D1084602B0BDE87040FFF753BF0348B1
:1041900002B0BDE8704027F032BB00BFF003002042
:1041A0002DE9F74F06460191154698461CF032FD61
:1041B000044600285CD14FF02003EFF3118A83F30B
:1041C0001288BFF36F8FDFF8B0B0A7010022002381
:1041D000584618F0CFFD68B9DFF8A09009EB070446
:1041E000636813F1100F14D10193584618F0A2FD23
:1041F000019B06E00134042C0BF1400BE5D16FF07C
:104200000B038AF31188BFF36F8F184603B0BDE824
:10421000F08F019B2061C4E902350C9B63610D9B0B
:10422000A3616FF00F03C4F83C806360304609F867
:10423000076001F02FFD58B1304601F02BFDB5FBB2
:10424000F0F202FB10551DB1E36B43F00403E3638E
:1042500018F0020F07D02C37094809EB070127F0A7
:10426000CEFA0023CDE7304601F0B8FC0346C8E79C
:104270006FF00F03C9E700BF201B0020041B0020C4
:10428000F003002010B54FF02003EFF3118483F307
:104290001288BFF36F8FFFF7B7FE50B1436810333A
:1042A00007D16FF08B03436000F12C01034827F026
:1042B000A6FA84F31188BFF36F8F10BDF0030020BE
:1042C0002DE9F041104CDFF8448004256FF08B0796
:1042D0004FF02003EFF3118683F31288BFF36F8F43
:1042E0006368103305D104F12C014046676027F064
:1042F00086FA86F31188BFF36F8F013D04F1400405
:10430000E6D1BDE8F08100BF041B0020F0030020CF
:1043100070B50A4C0A4E00253146204627F052FA65
:104320000122A4F110001146013527F02DFA042DC9
:1043300004F14004F0D1002070BD00BF301B00200C
:104340003540000008B5014603481CF04DFC10B193
:10435000012300F8033C08BD041C0020016901236F
:1043600081F82B300B6833B191F829301BB102482A
:10437000083127F044BA7047F00300200169012397
:1043800081F82A300B6833B191F828301BB102480C
:10439000083127F034BA7047F0030020012310B52C
:1043A00082F82830136814463BB192F82A3023B1C2
:1043B000084802F1080127F022FA236F9A681B6966
:1043C0009A4206D004F118010248BDE8104027F0D7
:1043D00016BA10BDF003002038B5056995F87E00C7
:1043E00070B195F87F3063B985F82830286F1CF0DC
:1043F0004DFB05F118010446034827F000FA20465A
:1044000038BD0020FCE700BFF003002073B5144660
:1044100002F12C060A1E054610DDE06E31461CF046
:1044200035FB012384F8293023683BB194F82B3005
:1044300023B1084804F1080127F0E1F9064B009385
:1044400001940123402231462846FFF7A9FE02B01D
:1044500070BD00BFF00300200D44000013B50469D7
:104460008DF8071094F87E308BB194F87F3073B9D3
:104470000DF10701206F84F8283001221CF006FBA3
:10448000014630B10A4804F1180127F0B8F902B02A
:1044900010BD206F01221CF04BFB0028F7D0206FCD
:1044A00001220DF107011CF0F1FA0028EAD1EEE734
:1044B000F00300207FB5836E5B681B6A1E7D054696
:1044C00030461CF0A7FBD0B9A86D4FF4806203A959
:1044D0001CF0FBFA044690B18306A5F1180308BF4F
:1044E00000F1FF340193074B039900932246022306
:1044F0003046FFF755FEA86D21461CF005FB04B0C1
:1045000070BD00BF9D43000070B504460E460179A2
:10451000154815461CF05AFB10B394F90020637837
:10452000002A16DB202B04D0222B0ED06FF0850042
:104530000AE02B681A6840F80C2C9A8820F8082C9E
:104540009B7900F8063C002070BD638800F8053CAC
:10455000F9E7212BEAD10C38072328603360F2E712
:104560006FF01200F0E700BF041C00200B4A034666
:104570000021A0F87E100185106858679088927914
:10458000A3F8780083F87A2083F87C1083F87B10F6
:10459000402203F12C0027F031BC00BFA0CC020068
:1045A00038B50D46014624481CF004FB044680B390
:1045B0000246691E52F880395B68052929D8DFE870
:1045C00001F020280320252914F8021C31B91B6AA8
:1045D000187BFFF71BFF012304F8023C14F8583C3A
:1045E000BBB9012304F8583C54F8803C8BB114F853
:1045F000563C73B1A4F178011048BDE8384027F06B
:10460000FEB8BDE838401046FFF7B0BF012304F8FC
:10461000013C38BD14F8011C0029FAD014F8020C32
:10462000002104F8011C0028F3D01B6A187BBDE8A8
:104630003840FFF7EBBE00BF041C0020F003002051
:1046400010B504690023C4F884300C4BC4F8800012
:10465000596804F1840269B9C3E9002204F1080031
:10466000074927F0AFF804F11800064927F0AAF827
:10467000002010BD0A605A60F0E700BF041C002053
:104680003F0C0200B544000030B585B0A123056998
:104690008DF80430202342688DF80530002385F81A
:1046A0007D300220ADF80A00106AADF80C10ADF8AC
:1046B00008300079ADF806300A2201A91CF062FA30
:1046C000054C95F87D3023B9012027F0D0F9013C45
:1046D000F7D105B030BD00BFA186010037B5094D47
:1046E0000949002400944FF0FF334FF480622846BC
:1046F00018F04EFC0549284626F0B3FF204603B0CB
:1047000030BD00BFF003002040D5022029E20200A6
:104710002DE9F84305464FF02003EFF3118683F3AC
:104720001288BFF36F8F0E4B1C689CB10D4FDFF8E2
:1047300038804FF00C09D4E90132002D08BF134630
:104740002BB198F8142009FB02F2B85C9847246852
:10475000002CF0D186F31188BFF36F8FBDE8F8838A
:104760000C1C0020201C00206828002038B51A4BA3
:104770001C7DBFF35B8F04F01F0301229A40174B8F
:104780006109D04303EB810353E8001F01EA0005F0
:1047900043E8005CBCF1000FF6D1BFF35B8F114220
:1047A00013D00F4B0F4D8BB10C236343EA18E85C19
:1047B00051781CF05BFB0020FFF7AAFF0C235C4341
:1047C0002A1900232B51C2E9013338BD83F3118824
:1047D000BFF36F8FEFE700BF682800202C1C00207C
:1047E0006D0E0200201C00202DE9F041334B0746DE
:1047F0001D7D4FF02003EFF3118883F31288BFF380
:104800006F8F0C242E4B2F4E6C431A19195D002903
:1048100049D007CA06EB040C8CE8070000221A55A1
:1048200088F31188BFF36F8F0C236B43F218F05C91
:10483000B8B37B1C0FD0D2F808C02348234A4FF4EA
:10484000004400210023ECFB0401FCF791FC012152
:10485000381A27F0EEF818F02BFC0120FFF758FF6C
:10486000BFF35B8F05F01F0201219140184A6B09CD
:1048700002EB830353E8002F0A4343E8002000289B
:10488000F8D1BFF35B8F134B33B10C20684333185F
:10489000305C59781CF0DEFAFFF768FF18F0D8FD9D
:1048A0000120BDE8F0810146284600F015F80028F7
:1048B000B6D007C8344484E80700B1E76828002070
:1048C000141C0020201C00203F420F0040420F001B
:1048D0002C1C0020550E02002DE9F04F85B00E462D
:1048E00003A900F041F8039B01931C4BDFF8708093
:1048F000D3F800A0441E24B24FF400474FF0000B41
:10490000631C04D10025284605B0BDE8F08F019B4B
:10491000144A04EB440503EB8505C4466868594610
:10492000E0FB07C100236046FCF722FC8146A86833
:104930000C4AC4465946E0FB07C100236046FCF719
:1049400017FCBAF1FF3F01D0824504D9721CDAD0BE
:104950004844B042D7D9013C24B2D1E7E800002056
:104960003F420F0040420F0008B9024B0B6000208D
:10497000704700BFF4D60200014910220A60704758
:1049800010ED00E072B6404080F31188BFF36F8FE6
:10499000BFF34F8F30BF62B6BFF36F8F704700BF5A
:1049A00072B6494081F3118820BF80F3118862B646
:1049B000704700BF43B2002B08DB012200F01F004C
:1049C00002FA00F05B09024A42F82300704700BF78
:1049D00000E100E043B2002B0DDB01225B0900F097
:1049E0001F0002FA00F02033034A42F82300BFF30D
:1049F0004F8FBFF36F8F704700E100E0054B420916
:104A000000F01F0053F82220012303FA00F01040A9
:104A1000704700BF00E100E043B2002BA8BF03F1E4
:104A2000604301F10101B8BF064B4FEA4111ACBF31
:104A300003F5614300F00F00C9B2B4BF195483F805
:104A40000013704714ED00E030BFFFF7FDBF00BF5B
:104A50000F4A08B50F4B22F07F029A60BFF34F8FC9
:104A6000BFF36F8FD3F8882022F47002C3F8882038
:104A7000EFF3148323F0040383F31488BFF36F8FE1
:104A800017F09EFE18F026FE00F0D6F917F0DCFEB7
:104A90000000000000ED00E0094A0A499368096837
:104AA0009967094958674B6843F080534B6000236E
:104AB00083F31188BFF36F8F9368986F704700BFBF
:104AC00068280020F4DC020000ED00E012498A684A
:104AD0004FF030001044EFF3098C80E8F01F2020E5
:104AE00080F31288BFF36F8F0C4F4FF00066CA69D6
:104AF0008A603E60506F0023536780F3118804B5CD
:104B0000104600F0DFF9BDE8044002F1300090E803
:104B1000F01F8CF3098870476828002004ED00E03E
:104B20001EF0040F0CBFEFF30880EFF309808169DA
:104B300011F8021C0229FFD001B51CF041F901BD9A
:104B400042F8203C009B42F81C3C0A49019B42F879
:104B5000183C029B42F8143C21F001014FF0807395
:104B600042F8043C42F8081C0023203A02654367DF
:104B7000704700BF5B060200094A0346906870B1A7
:104B800013F1160F406E05D0A0F140029A4205D8ED
:104B9000834203D2814228BF002070470020704723
:104BA0006828002008B5094B98600D46144600F0AF
:104BB00089F9204685F30988002163B681F31188BD
:104BC000BFF36F8F002200231BF047FD68280020F1
:104BD00001B572B60B4A906900281EBF0021916191
:104BE00026F044FD62B6EFF30580A0F110004FEA15
:104BF000C0000549014409C99847BDE8014003497F
:104C0000084700006828002048C30200114C00003B
:104C1000044B9968D869884203D003494FF0805209
:104C20000A6070476828002004ED00E038B51C4B8E
:104C300014469A6A9A6A9A6A0546900720D5586B74
:104C40009A6A12061CD519B19A6A22F080029A62F9
:104C50009A6A9A6A9A6AD20615D49B6A9B0712D4FA
:104C600000200F4B9A6A920642BF5A6A22F4005201
:104C70005A629A6A42F0FF029A620023237038BD9A
:104C80006FF01500E4E7064B5B681905E8D5294687
:104C9000FFF772FF0028E3D080F309880220E0E7E5
:104CA00000ED00E00D4B9A6A9A6A9A6A920508D55F
:104CB0009A6B9A6A120404D518B19A6A22F40042D7
:104CC0009A62064B9A6A9A6AD20558BF9A6A9A6A99
:104CD000002042F47F429A620870704700ED00E0C5
:104CE000F0B54B4B5B688BB00C46C3F30803002553
:104CF00085F31188BFF36F8F02F07F41B1F17F4FD1
:104D000011D102F00C0108290DD0160701D4044678
:104D100001250022033B8DF80720032B71D8DFE823
:104D200003F0045B5F632C46F3E7394AD36A13F060
:104D3000020366D1D16A002915DBD16A490012D578
:104D4000A16931F8020C4DF6027188420AD092F83E
:104D5000281039B30DF1070201212046FFF766FF45
:104D6000034600E023689DF80720CAB902AE04F1AB
:104D7000200720686168324603C20834BC421646E8
:104D8000F7D1099A002D3ED0C2F3080121B96FEA8C
:104D900052226FEA4222099202A918461CF00EF82C
:104DA0000BB0F0BD92F8291029B10DF107010120D7
:104DB000FFF778FFD4E7518D89B20029D3D0916AEB
:104DC000916A916A916A916A916A916A6FEA014166
:104DD0006FEA11419162C6E70DF107020021BCE7BD
:104DE0000DF107010020E3E7094B9A6A9A6A9A6A73
:104DF0009A6A9A6A9A6A9A6A6FEA02426FEA124259
:104E00009A620023AFE722F4FF7222F00102C2E7A8
:104E100000ED00E0024A536943F01003536170470C
:104E200000ED00E0EFF30880EFF3098101B5724671
:104E3000FFF756FF01BD00BF044800232021C21820
:104E40000133302B82F80013F9D1704700E100E004
:104E500027F0E8F9202080F3118808484FF4046116
:104E6000401880F30988EFF314800221084380F38F
:104E70001488BFF36F8FFFF7EBFD000080E702207F
:104E8000084B9B6883420BD1EFF3058343B1064B7C
:104E90005A6842F080525A605A6A22F400425A62BA
:104EA00018F0A6BB6828002000ED00E0024B034A82
:104EB0000348012100F06EB800000420000000202B
:104EC000F4D60200426E054B403A1A60044A402173
:104ED000C3E901121846012100F066B8301C002019
:104EE00000000B15F0B51F4F00268E4201DB104667
:104EF000F0BD44689CB353B104F1FF3C14EA0C0FBD
:104F000018D11F2C16D905681CEA050F12D1202CC8
:104F10000568D0F808C0D2B20FD9B4F1004F0ED84E
:104F2000013CB4FA84F4C4F11F046400072A4CEA7B
:104F3000040406D96FF01502D9E70824F6E73E24E9
:104F4000F4E725F01F05154345F0100544F0010472
:104F5000C7F89820C7F89C500132C7F8A040013626
:104F60000C30C2E700ED00E0044B0522C3F89420AA
:104F7000BFF34F8FBFF36F8F704700BF00ED00E0AE
:104F8000BFF35F8F024B0022C3F89420704700BF2D
:104F900000ED00E010B5034C01232278FFF7A2FFDB
:104FA000207010BDCAD0022008B5094A002312782B
:104FB000FFF798FF10F1160F02D0064A072800DD10
:104FC00008BDC2F89800C2F8A0300130F6E700BF73
:104FD000CAD0022000ED00E014490868082810B586
:104FE00021D8FFF7CDFF124C49680022904201F111
:104FF0000C0105D10F4B1870FFF7B6FF002010BD54
:10500000C4F8982051F80C3C23F01F03134343F0DD
:105010001003C4F89C3051F8043C43F00103C4F879
:10502000A0300132E2E74FF0FF30E8E700D702009E
:1050300000ED00E0CAD00220014B1860704700BFAD
:10504000F0000020F8B5084F06460D460024AC429B
:1050500008DA3B6898470A28305504F1010401D06A
:105060000D28F4D12046F8BDEC000020F8B50A4F19
:105070000D46461EC0F10104A3199D4201DC2846DD
:10508000F8BD73780A2B02D13B680D2098473B6826
:1050900016F8010F9847EFE7F000002008B5024826
:1050A0000521FFF7E3FFFEE732E2020010B5074CEF
:1050B0002368C2180648C0F1005101F580218A42D8
:1050C0003ABFC01822604FF0FF3010BD3C1C0020DA
:1050D00080FE022008B51D210448FFF7C7FF4040AD
:1050E00080F311884FF0030002DF00BF38E20200B6
:1050F00010B54FF02003EFF3118083F31288BFF354
:105100006F8F114A0123C2F840354FF080424FF0B3
:105110008051C2F87835D1F83041082C08D1D1F847
:105120003411052904D8094C615C09B1C2F838363C
:105130004FF080430122C3F8802580F31188BFF32C
:105140006F8F002010BD00BF00E0014065E202004B
:1051500020B1034B800143F001031847704700BFA3
:10516000B0CC020000F07F03082B42B204D010F054
:10517000780F01D000207047002A00F00F0300F0E4
:10518000080005DA58B9084800EB43104C30704766
:1051900038B9054800EB431000F5B6707047034876
:1051A00070470348704700BF402200208C23002036
:1051B000AC2400200146014826F0DBBAFC020020A6
:1051C0000149024826F01BBB682200209004002001
:1051D00013B50B4802F0B4F900240A4802F0F6F9BE
:1051E0004FF0FF334FF4806207490848009417F0EE
:1051F000CFFE0749074826F0E5FA204602B010BD69
:105200006EE2020020D7020080D902209004002024
:105210002D5500006822002002480022002317F0CC
:1052200057BD00BFFC02002010B5054CFFF7F4FF8E
:1052300020B1011D204626F0E5F9F7E710BD00BFBB
:105240008C02002007B500230E48002201A917F0A8
:1052500087FB90B1FFF7E8FF0A480022002301A96D
:1052600017F07EFB38B90198042340600374FFF700
:10527000A1FFFFF7A5FF002001E00198406003B007
:105280005DF804FB8C020020817870B50646084664
:10529000FFF768FF0B06F578044612D5002D43D1C1
:1052A000FFF7D0FF034600283ED00122A577027405
:1052B000032202739C60FFF77DFFBDE87040FFF79B
:1052C0007FBF4DB1012D2FD1FFF7BCFF034658B36F
:1052D000657705740573EDE7FFF7B4FF20B3B27887
:1052E000124B12F0800F02F0080111D041B1D3F837
:1052F000A836E36001230374022303738460DAE7B2
:1053000002F00F02142101FB0233D3F80836F0E754
:1053100011B1D3F8A837ECE702F00F02142101FB1A
:105320000233D3F80837E4E770BD00BF00700240D5
:10533000022810B511D8094B1C5CFFF783FF60B140
:10534000002202740472FFF735FF054B93F82430F6
:105350001BB1BDE81040FFF733BF10BD6BE2020088
:105360004022002010B50F49BFF35B8F01F12003ED
:10537000002253E8000F012803D143E80024002C49
:10538000F7D1BFF35B8F0BD1CC690C3120461BF0FA
:1053900048F9783004D12046BDE810401BF01CB914
:1053A00010BD00BF40220020F0B5064689B014228F
:1053B000002103A826F022FD3378013B052B21D8DC
:1053C000DFE803F07A0314146A1603238DF814300F
:1053D0000024FFF737FF0346A0B1047400F1080270
:1053E000DDE9050182E8030018461DE00423EDE72E
:1053F000B1780846FFF7B6FE837A044623B1013B35
:10540000022B43D909B0F0BD0B06F57813D5002D5A
:10541000F8D1FFF717FF03460028F3D00122A57744
:105420000274032202739C60FFF7C4FE09B0BDE85A
:10543000F040FFF7C5BE55B1012DE3D1FFF702FFE4
:1054400003460028DED0657705740573EBE7FFF7A8
:10545000F9FE07460028D5D0012303740223037305
:10546000846004F10C01B0781CF0CDF9134AE168B6
:10547000B2F88C328B4206D95B1AA2F88C3202F059
:1054800003FE3846D0E7A2F88C52FAE7304609B05E
:10549000BDE8F040FFF7F8BE01A802F0D3FD9DF88B
:1054A0000530052B04D19DF8043013F0600FA9D00E
:1054B000034B059301248CE702248AE74022002055
:1054C000AC23002038B5002464F07F00C0B2FFF7A1
:1054D00049FE01341BF0D0FC082CF5D10F4D0024FF
:1054E000E0B2FFF73FFE036903B9056101341BF029
:1054F000C3FC082C05F14005F2D1094C04F5A67057
:105500001BF0BAFCD4F87C3213B9064BC4F87C32D9
:1055100005481BF0B1FC002038BD00BF4020002032
:1055200040220020401C0020AC2400202DE9F04344
:10553000A74CDFF8A08285B00746FFF76DFE10B9D3
:1055400005B0BDE8F08394F82530027C00F1040931
:105550003BB9002A00F084804946404626F052F8C4
:10556000EBE7042AF8D8DFE812F07B000500010120
:1055700017014101037B8568032BEDD8DFE803F0B9
:10558000023B585D6E69944B002232607260D3F822
:1055900080143170D3F884147170D3F88814D3F860
:1055A0008C0441EA00217180D3F89014D3F894045C
:1055B00041EA0021B180D3F89814D3F89C3441EA31
:1055C0000323F3800823EB6030687168834B03C3C7
:1055D00011462B68687A984796F90030002B06DB55
:1055E000F38823B1A4F88C3202F04EFDB4E7002317
:1055F000A4F88C32B0E76B7F002BADD02B7F002B53
:10560000AAD000266E774FF0FF3275482E774FF004
:10561000FF331BF044FC6B6901936B68CDE90236E4
:1056200001A9687A02F03EFB6D481BF03AFC93E753
:105630002B680121687A98478EE7AB7A6BB9EB7FCC
:105640005BB967484FF0FF324FF0FF331BF027FC88
:1056500002F04AFD62481BF024FC2B680221E9E7B6
:10566000027A042A3FF678AFDFE802F05B0325698F
:10567000750002F0C7FA054600287FF46DAF02F00E
:1056800005FABFF35B8F5749012351E8002F002A29
:1056900003D141E800300028F7D1BFF35B8F7FF4DE
:1056A0005BAF41F8105C41F8085CE0696361143954
:1056B0001AF049FF50E7002565F07F00C0B2FFF700
:1056C00051FD037A13B1407A02F0FAFE0135082D3C
:1056D000F2D194F854311BB194F8550102F0F0FE68
:1056E0000025E8B2FFF73EFD037A13B1407A02F0DD
:1056F000E7FE0135082DF4D194F874321BB194F80B
:10570000750202F0DDFE012002F05EFA012384F84A
:1057100025302368002B3FF41FAF0021022098475B
:105720001AE7002584F8255002F056FEFFF71AFE0E
:105730002368002B3FF410AF29460420EFE7002B2D
:105740003FF40AAF02F060FE2368002B3FF404AF81
:1057500000210520E3E72268002A3FF4FDAE002B7C
:105760003FF4FAAE002106209047F5E607F1100558
:105770004FF0FF334FF0FF3228461BF090FBFFF74E
:10578000A1FE28461BF08DFB57F8283C002B3FF468
:10579000E3AE00210120C2E794F874327BB1012509
:1057A00084F8895284F88852FFF74CFD38B10E4ACC
:1057B000057405738260FFF7FDFCFFF701FD57F8E4
:1057C000283C002B3FF4C8AE00210A20A7E700BF09
:1057D000402200208C020020007002404422002061
:1057E0007822002060220020AC2400201BF078FFEB
:1057F00002F0F2FD02F040F9FFF716FDFFF762FE3E
:105800001BF067FF014802F007FAA5E6A953000064
:1058100038B51A4D95F824405CBB05F1380025F0E9
:1058200034FF204600F030FB2246E86101212720AA
:10583000FFF7F2F8124802F0EFF9124B98421AD132
:105840001BF047FFFFF73EFE044610B9012385F821
:1058500024300D4B1B680BB1FFF7B2FC4FF08043B7
:10586000D3F83834DB0702D50020FFF761FD20466E
:1058700038BD0024FBE76FF00404F8E74022002065
:10588000A95300000000AD0BFC020020074B93F869
:1058900024203AB193F82530002B0CBF6FF0120092
:1058A000002070476FF01200704700BF40220020B8
:1058B0000F4B93F8243010B50146B3B1047820465D
:1058C000FFF750FC10B96FF0150010BD44720B7952
:1058D000837249884160230702D44B1E0B42F2D1E8
:1058E00020461BF08BFF0020EFE76FF01200ECE783
:1058F00040220020124B93F8242010B50146CAB173
:1059000093F82530B3B1FFF72DFC0446A8B1837A94
:10591000012B12D007D9023B012B07D96369A36180
:105920000020E06010BD02F0E7FBF7E7084602F058
:105930005BFBF3E76FF01200F4E76FF01500F1E79F
:105940004022002038B50E4B93F82420054682B142
:1059500093F825306BB1FFF705FC68B115F008042A
:105960000AD1284602F062FB284602F0FBFD2046E1
:1059700038BD6FF01200FBE76FF01500F8E700BFCD
:105980004022002038B50C4B93F8242005460C46E5
:1059900062B193F825304BB1FFF7E4FB48B141B158
:1059A000284602F029FB2070002038BD6FF012005D
:1059B000FBE76FF01500F8E740220020F8B5134F21
:1059C00097F824300446BBB1FFF7CCFB0546B0B1D5
:1059D000230705D4204602F029FB204602F0C2FD31
:1059E0002E7A7EB997F8250001232B7218B1204634
:1059F00002F066FD3046F8BD6FF01200FBE76FF075
:105A00001500F8E76FF07700F5E700BF40220020AF
:105A100038B5114B93F8242001469AB193F82530FC
:105A200083B1FFF79FFB054678B1037A83B108463F
:105A3000002402F019FD2846AC771BF01DFA2C72E9
:105A4000204638BD6FF01200FBE76FF01500F8E755
:105A50006FF07700F5E700BF402200202DE9F0430A
:105A6000DFF8DC801C4698F8243085B0074689466C
:105A70001646002B5DD098F82530002B59D0030630
:105A80005AD5FFF76FFB0546002855D0037A002B47
:105A900052D04FF0FF334FF0FF3208F138001BF0C7
:105AA000FEF9AB7F4BB108F138001BF0FAF96FF04B
:105AB0000A04204605B0BDE8F08316B9EB7F03B1B8
:105AC000EE77AB7ABBB95EB1B8F80A30B34207D90A
:105AD0006A68B6FBF2F302FB13630BB90123EB77A1
